:100000000C9462000C948A000C948A000C948A0070
:100010000C948A000C948A000C948A000C948A0038
:100020000C948A000C948A000C948A000C948A0028
:100030000C948A000C948A000C948A000C948A0018
:100040000C9465040C948A000C9433040C940D04F5
:100050000C948A000C948A000C948A000C948A00F8
:100060000C948A000C948A000000000024002700F1
:100070002A0000000000250028002B0000000000DE
:1000800023002600290004040404040404040202DA
:100090000202020203030303030301020408102007
:1000A0004080010204081020010204081020000012
:1000B0000008000201000003040700000000000027
:1000C0000000AF0411241FBECFEFD8E0DEBFCDBFCC
:1000D00011E0A0E0B1E0E6E2FDE002C005900D9283
:1000E000AA39B107D9F722E0AAE9B1E001C01D920F
:1000F000A835B207E1F710E0C2E6D0E004C02197CE
:10010000FE010E948B06C136D107C9F70E94F9048F
:100110000C9491060C940000FC01538D448D252F06
:1001200030E0842F90E0821B930B541710F0CF9691
:10013000089501970895FC01918D828D981761F0C3
:10014000A28DAE0FBF2FB11D5D968C91928D9F5FDA
:100150009F73928F90E008958FEF9FEF0895FC01B9
:10016000918D828D981731F0828DE80FF11D858D6C
:1001700090E008958FEF9FEF0895FC01918D228DFF
:10018000892F90E0805C9F4F821B91098F73992784
:100190000895FC01A48DA80FB92FB11DA35ABF4F1C
:1001A0002C91848D90E001968F739927848FA68976
:1001B000B7892C93A089B1898C91837080648C93CA
:1001C000938D848D981306C00288F389E02D808179
:1001D0008F7D80830895EF92FF920F931F93CF93AB
:1001E000DF93EC0181E0888F9B8D8C8D98131AC072
:1001F000E889F989808185FF15C09FB7F894EE8959
:10020000FF896083E889F9898081837080648083B5
:100210009FBF81E090E0DF91CF911F910F91FF9000
:10022000EF900895F62E0B8D10E00F5F1F4F0F73A8
:100230001127E02E8C8D8E110CC00FB607FCFACF63
:10024000E889F989808185FFF5CFCE010E94C90038
:10025000F1CFEB8DEC0FFD2FF11DE35AFF4FF08234
:100260009FB7F8940B8FEA89FB8980818062CFCF9A
:10027000CF93DF93EC01888D8823B9F0AA89BB89DD
:10028000E889F9898C9185FD03C0808186FD0DC0C8
:100290000FB607FCF7CF8C9185FFF2CF808185FFE9
:1002A000EDCFCE010E94C900E9CFDF91CF91089533
:1002B00083EA91E00E94BD0021E0892B09F420E04F
:1002C000822F089580E090E0892B29F00E94580148
:1002D00081110C9400000895AF92BF92CF92DF92EB
:1002E000EF92FF920F931F93CF93DF936C017B01EB
:1002F0008B01040F151FEB015E01AE18BF08C0177C
:10030000D10759F06991D601ED91FC910190F081EE
:10031000E02DC6010995892B79F7C501DF91CF91B1
:100320001F910F91FF90EF90DF90CF90BF90AF9013
:100330000895833081F028F4813099F08230A9F05B
:1003400008958730A9F08830C9F08430B1F48091E5
:1003500080008F7D03C0809180008F778093800024
:10036000089584B58F7784BD089584B58F7DFBCFC4
:100370008091B0008F778093B00008958091B00095
:100380008F7DF9CFCF93DF93282F30E0F901E2552D
:10039000FF4F8491F901E656FF4FD491F901EA57D6
:1003A000FF4FC491CC23A1F081110E949901EC2F41
:1003B000F0E0EE0FFF1FE458FF4FA591B491EC91D0
:1003C000ED2381E090E009F480E0DF91CF91089582
:1003D00080E090E0FACF1F93CF93DF93282F30E097
:1003E000F901E255FF4F8491F901E656FF4FD49190
:1003F000F901EA57FF4FC491CC23A9F0162F8111C0
:100400000E949901EC2FF0E0EE0FFF1FEE58FF4F16
:10041000A591B4918FB7F894EC91111108C0D095C3
:10042000DE23DC938FBFDF91CF911F910895DE2BE8
:10043000F8CFCF93DF9390E0FC01E656FF4F249175
:100440008A579F4FFC0184918823D1F090E0880F58
:10045000991FFC01E859FF4FA591B491FC01EE589A
:10046000FF4FC591D49161110EC09FB7F8948C9144
:10047000E22FE0958E238C932881E223E8839FBFAF
:10048000DF91CF9108958FB7F894EC91E22BEC9324
:100490008FBFF6CF3FB7F89480919F019091A00154
:1004A000A091A101B091A20126B5A89B05C02F3F44
:1004B00019F00196A11DB11D3FBFBA2FA92F982F8A
:1004C0008827BC01CD01620F711D811D911D42E085
:1004D000660F771F881F991F4A95D1F708958F924D
:1004E0009F92AF92BF92CF92DF92EF92FF924B0119
:1004F0005C010E944A026B017C010E944A026C1955
:100500007D098E099F09683E734081059105A8F316
:1005100021E0821A9108A108B10888EEC80E83E094
:10052000D81EE11CF11C81149104A104B10429F727
:10053000FF90EF90DF90CF90BF90AF909F908F9003
:100540000895089590E080E00895CF93DF93EC0143
:1005500060E08E810E94EB0161E08E810E94EB01E0
:1005600060E08E810E94EB018BE891E00197F1F74A
:10057000DF91CF910895CF92DF92EF92FF920F9388
:100580001F93CF93DF936C017C0187E0E80EF11C91
:10059000D0E0C0E0062F10E0B8010C2E02C0759527
:1005A00067950A94E2F76170F70181917F010E94DB
:1005B000EB012196C430D10579F7C601DF91CF91C7
:1005C0001F910F91FF90EF90DF90CF900C94A502B8
:1005D000CF92DF92EF92FF920F931F93CF93DF930F
:1005E000EC01F62E642F8C810E94EB018D818F3FF0
:1005F00019F060E00E94EB010F2D10E08F8584FF61
:1006000025C06E0187E0C80ED11CF12CE12CB80189
:100610000E2C02C0759567950A94E2F76170F60199
:1006200081916F010E94EB01FFEFEF1AFF0A88E052
:10063000E816F10461F7CE01DF91CF911F910F9180
:10064000FF90EF90DF90CF900C94A502B80184E06A
:10065000759567958A95E1F7CE010E94BB026F2DD3
:10066000CE01DF91CF911F910F91FF90EF90DF901E
:10067000CF900C94BB0240E0682F80E492E00C9491
:10068000E80281E00E943B038BE39FE10197F1F7D1
:100690000895CF93DF93813029F090914F029860B5
:1006A00090934F02809353021092540280E48093FF
:1006B000550280E18093560280E58093570261E005
:1006C000809144020E941902809145028F3F19F0E7
:1006D00061E00E94190261E0809146020E941902C5
:1006E000C0E4D2E09E012054324080914F0284FD4C
:1006F0000BC084E090E021962817390744F461E0AC
:100700008E810E941902EECF88E090E0F4CF8BE357
:100710009DE00197F1F760E0809144020E94EB01B7
:1007200060E0809146020E94EB01809145028F3F7C
:1007300019F060E00E94EB0180914F0284FD34C00B
:1007400063E080E492E00E94BB02CBE4D6E4CE01F9
:100750000197F1F763E080E492E00E94BB022197E9
:10076000F1F763E080E492E00E94BB0283E592E04F
:100770000197F1F762E080E492E00E94BB02809171
:100780004F0280620E943B0384E0809350028CE021
:100790000E943B030E94410382E08093510286E065
:1007A000DF91CF910C943B0380620E943B038BE46A
:1007B00096E40197F1F780914F0280620E943B031B
:1007C00083E592E00197F1F780914F0280620E94E9
:1007D0003B03D5CF90915302891710F08FEF890F0B
:1007E000E82FF0E0E05CFD4F848980680C943B03C7
:1007F00041E00E94E80281E090E00895FB01019051
:100800000020E9F73197AF01461B570BDC01ED9152
:10081000FC910280F381E02D09941F920F920FB694
:100820000F9211242F933F934F935F936F937F9376
:100830008F939F93AF93BF93EF93FF9383EA91E0DE
:100840000E94C900FF91EF91BF91AF919F918F914D
:100850007F916F915F914F913F912F910F900FBEBC
:100860000F901F9018951F920F920FB60F921124A0
:100870002F938F939F93EF93FF93E091B301F091A8
:10088000B4018081E091B901F091BA0182FD1BC0F1
:1008900090818091BC018F5F8F732091BD01821781
:1008A00041F0E091BC01F0E0ED55FE4F958F809353
:1008B000BC01FF91EF919F918F912F910F900FBEEF
:1008C0000F901F9018958081F4CF1F920F920FB652
:1008D0000F9211242F933F938F939F93AF93BF93C6
:1008E00080919B0190919C01A0919D01B0919E01EE
:1008F00030919A0123E0230F2D3758F50196A11D61
:10090000B11D20939A0180939B0190939C01A09329
:100910009D01B0939E0180919F019091A001A091B3
:10092000A101B091A2010196A11DB11D80939F016B
:100930009093A001A093A101B093A201BF91AF91A8
:100940009F918F913F912F910F900FBE0F901F900D
:10095000189526E8230F0296A11DB11DD2CFE3EA18
:10096000F1E01382128288EE93E0A0E0B0E084838D
:100970009583A683B78384E091E09183808385EC9F
:1009800090E09587848784EC90E09787868780EC59
:1009900090E0918B808B81EC90E0938B828B82EC4A
:1009A00090E0958B848B86EC90E0978B868B118EF4
:1009B000128E138E148EE0E4F2E01382128286E12E
:1009C00091E09183808382E084838FEF85838FE041
:1009D000868380E1878381E1808782E1818783E16B
:1009E00082871386148615861686178681E00C94F6
:1009F0004903CF93DF93CDB7DEB7A1970FB6F89435
:100A0000DEBF0FBECDBF789484B5826084BD84B54F
:100A1000816084BD85B5826085BD85B5816085BDF9
:100A200080916E00816080936E00109281008091B1
:100A30008100826080938100809181008160809339
:100A40008100809180008160809380008091B1005E
:100A500084608093B1008091B00081608093B00089
:100A600080917A00846080937A0080917A0082601D
:100A700080937A0080917A00816080937A008091DF
:100A80007A00806880937A001092C10060E08CE068
:100A90000E94190261E089E00E94190260E08EE084
:100AA0000E94190261E08BE00E94190260E08DE073
:100AB0000E94190261E088E00E94190282E00E940F
:100AC000490380E00E94EA036EE171E080E492E075
:100AD0000E94FE0360ED77E080E090E00E946F02EC
:100AE0000E94410380E4382E9AE0892E912CA12C9B
:100AF000B12C20E0C22E20E0D22E30927C008091DA
:100B00007A00806480937A0080917A0086FDFCCF21
:100B10008091780000917900102F082F2801012E74
:100B2000000C6608770817FF94C06DE283EA91E035
:100B30000E94EB0022273327A90124193509460911
:100B4000570919A2CE0181967C01CA01B901A501FC
:100B500094010E946906605DF70162937F0121158F
:100B600031054105510589F7E114F10429F0B70178
:100B700083EA91E00E94FE036EE271E083EA91E075
:100B80000E94FE030F3111050CF479C061E08BE087
:100B90000E94EB0183E00E94490380E00E94EA0387
:100BA00061E371E080E492E00E94FE0381E00E9434
:100BB000EA036EE371E080E492E00E94FE0368EED7
:100BC00073E080E090E00E946F020E9441038CE09D
:100BD0000E94C201892B09F068C060E089E00E9490
:100BE000EB0180E00E94EA0362E671E080E492E0BB
:100BF0000E94FE0368EE73E080E090E00E946F02C6
:100C00000E9441038DE00E94C201019709F057C084
:100C100060E088E00E94EB0180E00E94EA0366E861
:100C200071E080E492E00E94FE0368EE73E080E0F1
:100C300090E00E946F020E944103C114D10409F4A4
:100C40005CCF0E945801882309F457CF0E9400000E
:100C500054CFA301920119A2CE0181967C01CA0151
:100C6000B901A50194010E946906605DF7016293D4
:100C70007F01211531054105510589F775CF60E0E8
:100C80008BE00E94EB0184E00E94490380E00E9417
:100C9000EA0368E471E080E492E00E94FE0381E0F0
:100CA0000E94EA0367E571E086CF61E089E00E9477
:100CB000EB0181E00E94EA0366E771E097CF61E013
:100CC00088E00E94EB0181E00E94EA0360E971E0A4
:100CD000A8CFA1E21A2EAA1BBB1BFD010DC0AA1FA3
:100CE000BB1FEE1FFF1FA217B307E407F50720F095
:100CF000A21BB30BE40BF50B661F771F881F991F10
:100D00001A9469F760957095809590959B01AC0158
:100D1000BD01CF010895EE0FFF1F0590F491E02D66
:060D20000994F894FFCFD6
:100D260000000000EB006C018C003801BD009B0048
:100D3600AF0000000000F8036C01A202A102486F98
:100D46006D65204175746F6D6174696F6E000D0A73
:100D56000054656D702069732048696768004641D4
:100D66004E206973204F4E0054656D7020697320C4
:100D76004E6F726D616C0046414E206973204F467E
:100D860046004D6F74696F6E206E6F7420446574F3
:100D96006563746564004D6F74696F6E2044657495
:100DA6006563746564004C69676874204F46460045
:0A0DB6004C69676874204F4E00007E
:00000001FF
